{
  "_format": "hh-sol-artifact-1",
  "contractName": "EvidenceRegistry",
  "sourceName": "contracts/EvidenceRegistry.sol",
  "abi": [
    {
      "anonymous": false,
      "inputs": [
        {
          "indexed": true,
          "internalType": "uint256",
          "name": "evidenceId",
          "type": "uint256"
        },
        {
          "indexed": true,
          "internalType": "address",
          "name": "uploader",
          "type": "address"
        },
        {
          "indexed": false,
          "internalType": "string",
          "name": "fileHash",
          "type": "string"
        }
      ],
      "name": "EvidenceAdded",
      "type": "event"
    },
    {
      "anonymous": false,
      "inputs": [
        {
          "indexed": true,
          "internalType": "uint256",
          "name": "evidenceId",
          "type": "uint256"
        },
        {
          "indexed": false,
          "internalType": "bool",
          "name": "isVerified",
          "type": "bool"
        }
      ],
      "name": "EvidenceVerified",
      "type": "event"
    },
    {
      "inputs": [
        {
          "internalType": "string",
          "name": "_ipfsHash",
          "type": "string"
        },
        {
          "internalType": "string",
          "name": "_fileHash",
          "type": "string"
        }
      ],
      "name": "addEvidence",
      "outputs": [],
      "stateMutability": "nonpayable",
      "type": "function"
    },
    {
      "inputs": [],
      "name": "evidenceCount",
      "outputs": [
        {
          "internalType": "uint256",
          "name": "",
          "type": "uint256"
        }
      ],
      "stateMutability": "view",
      "type": "function"
    },
    {
      "inputs": [
        {
          "internalType": "uint256",
          "name": "",
          "type": "uint256"
        }
      ],
      "name": "evidenceRecords",
      "outputs": [
        {
          "internalType": "uint256",
          "name": "evidenceId",
          "type": "uint256"
        },
        {
          "internalType": "string",
          "name": "ipfsHash",
          "type": "string"
        },
        {
          "internalType": "string",
          "name": "fileHash",
          "type": "string"
        },
        {
          "internalType": "address",
          "name": "uploader",
          "type": "address"
        },
        {
          "internalType": "uint256",
          "name": "timestamp",
          "type": "uint256"
        }
      ],
      "stateMutability": "view",
      "type": "function"
    },
    {
      "inputs": [],
      "name": "getAllEvidence",
      "outputs": [
        {
          "components": [
            {
              "internalType": "uint256",
              "name": "evidenceId",
              "type": "uint256"
            },
            {
              "internalType": "string",
              "name": "ipfsHash",
              "type": "string"
            },
            {
              "internalType": "string",
              "name": "fileHash",
              "type": "string"
            },
            {
              "internalType": "address",
              "name": "uploader",
              "type": "address"
            },
            {
              "internalType": "uint256",
              "name": "timestamp",
              "type": "uint256"
            }
          ],
          "internalType": "struct EvidenceRegistry.Evidence[]",
          "name": "",
          "type": "tuple[]"
        }
      ],
      "stateMutability": "view",
      "type": "function"
    },
    {
      "inputs": [
        {
          "internalType": "uint256",
          "name": "_evidenceId",
          "type": "uint256"
        }
      ],
      "name": "getEvidence",
      "outputs": [
        {
          "components": [
            {
              "internalType": "uint256",
              "name": "evidenceId",
              "type": "uint256"
            },
            {
              "internalType": "string",
              "name": "ipfsHash",
              "type": "string"
            },
            {
              "internalType": "string",
              "name": "fileHash",
              "type": "string"
            },
            {
              "internalType": "address",
              "name": "uploader",
              "type": "address"
            },
            {
              "internalType": "uint256",
              "name": "timestamp",
              "type": "uint256"
            }
          ],
          "internalType": "struct EvidenceRegistry.Evidence",
          "name": "",
          "type": "tuple"
        }
      ],
      "stateMutability": "view",
      "type": "function"
    },
    {
      "inputs": [
        {
          "internalType": "uint256",
          "name": "_evidenceId",
          "type": "uint256"
        },
        {
          "internalType": "string",
          "name": "_fileHash",
          "type": "string"
        }
      ],
      "name": "verifyEvidence",
      "outputs": [
        {
          "internalType": "bool",
          "name": "",
          "type": "bool"
        }
      ],
      "stateMutability": "nonpayable",
      "type": "function"
    }
  ],
  "bytecode": "0x6080604052348015600f57600080fd5b5061147a8061001f6000396000f3fe608060405234801561001057600080fd5b50600436106100625760003560e01c8063a2ed5af014610067578063b4b274d314610085578063c22cf017146100b5578063c956f143146100d3578063eb5c0bea14610103578063eba57a571461011f575b600080fd5b61006f610153565b60405161007c91906109b6565b60405180910390f35b61009f600480360381019061009a9190610b57565b610159565b6040516100ac9190610bce565b60405180910390f35b6100bd610292565b6040516100ca9190610df7565b60405180910390f35b6100ed60048036038101906100e89190610e19565b6104ee565b6040516100fa9190610ec3565b60405180910390f35b61011d60048036038101906101189190610ee5565b6106a8565b005b61013960048036038101906101349190610e19565b6107f2565b60405161014a959493929190610fb6565b60405180910390f35b60015481565b600080600080858152602001908152602001600020600201805461017c90611046565b80601f01602080910402602001604051908101604052809291908181526020018280546101a890611046565b80156101f55780601f106101ca576101008083540402835291602001916101f5565b820191906000526020600020905b8154815290600101906020018083116101d857829003601f168201915b5050505050905060008360405160200161020f91906110b3565b604051602081830303815290604052805190602001208260405160200161023691906110b3565b60405160208183030381529060405280519060200120149050847f38507b0866ce0c7c45b3a5f78b8c7a9864c60351350eb6416c730da201b23e498260405161027f9190610bce565b60405180910390a2809250505092915050565b6060600060015467ffffffffffffffff8111156102b2576102b1610a2c565b5b6040519080825280602002602001820160405280156102eb57816020015b6102d8610958565b8152602001906001900390816102d05790505b5090506000600190505b60015481116104e6576000808281526020019081526020016000206040518060a00160405290816000820154815260200160018201805461033590611046565b80601f016020809104026020016040519081016040528092919081815260200182805461036190611046565b80156103ae5780601f10610383576101008083540402835291602001916103ae565b820191906000526020600020905b81548152906001019060200180831161039157829003601f168201915b505050505081526020016002820180546103c790611046565b80601f01602080910402602001604051908101604052809291908181526020018280546103f390611046565b80156104405780601f1061041557610100808354040283529160200191610440565b820191906000526020600020905b81548152906001019060200180831161042357829003601f168201915b505050505081526020016003820160009054906101000a900473ffffffffffffffffffffffffffffffffffffffff1673ffffffffffffffffffffffffffffffffffffffff1673ffffffffffffffffffffffffffffffffffffffff168152602001600482015481525050826001836104b791906110f9565b815181106104c8576104c761112d565b5b602002602001018190525080806104de9061115c565b9150506102f5565b508091505090565b6104f6610958565b6000808381526020019081526020016000206040518060a00160405290816000820154815260200160018201805461052d90611046565b80601f016020809104026020016040519081016040528092919081815260200182805461055990611046565b80156105a65780601f1061057b576101008083540402835291602001916105a6565b820191906000526020600020905b81548152906001019060200180831161058957829003601f168201915b505050505081526020016002820180546105bf90611046565b80601f01602080910402602001604051908101604052809291908181526020018280546105eb90611046565b80156106385780601f1061060d57610100808354040283529160200191610638565b820191906000526020600020905b81548152906001019060200180831161061b57829003601f168201915b505050505081526020016003820160009054906101000a900473ffffffffffffffffffffffffffffffffffffffff1673ffffffffffffffffffffffffffffffffffffffff1673ffffffffffffffffffffffffffffffffffffffff1681526020016004820154815250509050919050565b600160008154809291906106bb9061115c565b91905055506040518060a0016040528060015481526020018381526020018281526020013373ffffffffffffffffffffffffffffffffffffffff1681526020014281525060008060015481526020019081526020016000206000820151816000015560208201518160010190816107329190611350565b5060408201518160020190816107489190611350565b5060608201518160030160006101000a81548173ffffffffffffffffffffffffffffffffffffffff021916908373ffffffffffffffffffffffffffffffffffffffff160217905550608082015181600401559050503373ffffffffffffffffffffffffffffffffffffffff166001547f8ea00f7d388459c8e3291f1f2ad8267517f9cf27a7f44b1b098154060344a6fb836040516107e69190611422565b60405180910390a35050565b600060205280600052604060002060009150905080600001549080600101805461081b90611046565b80601f016020809104026020016040519081016040528092919081815260200182805461084790611046565b80156108945780601f1061086957610100808354040283529160200191610894565b820191906000526020600020905b81548152906001019060200180831161087757829003601f168201915b5050505050908060020180546108a990611046565b80601f01602080910402602001604051908101604052809291908181526020018280546108d590611046565b80156109225780601f106108f757610100808354040283529160200191610922565b820191906000526020600020905b81548152906001019060200180831161090557829003601f168201915b5050505050908060030160009054906101000a900473ffffffffffffffffffffffffffffffffffffffff16908060040154905085565b6040518060a00160405280600081526020016060815260200160608152602001600073ffffffffffffffffffffffffffffffffffffffff168152602001600081525090565b6000819050919050565b6109b08161099d565b82525050565b60006020820190506109cb60008301846109a7565b92915050565b6000604051905090565b600080fd5b600080fd5b6109ee8161099d565b81146109f957600080fd5b50565b600081359050610a0b816109e5565b92915050565b600080fd5b600080fd5b6000601f19601f8301169050919050565b7f4e487b7100000000000000000000000000000000000000000000000000000000600052604160045260246000fd5b610a6482610a1b565b810181811067ffffffffffffffff82111715610a8357610a82610a2c565b5b80604052505050565b6000610a966109d1565b9050610aa28282610a5b565b919050565b600067ffffffffffffffff821115610ac257610ac1610a2c565b5b610acb82610a1b565b9050602081019050919050565b82818337600083830152505050565b6000610afa610af584610aa7565b610a8c565b905082815260208101848484011115610b1657610b15610a16565b5b610b21848285610ad8565b509392505050565b600082601f830112610b3e57610b3d610a11565b5b8135610b4e848260208601610ae7565b91505092915050565b60008060408385031215610b6e57610b6d6109db565b5b6000610b7c858286016109fc565b925050602083013567ffffffffffffffff811115610b9d57610b9c6109e0565b5b610ba985828601610b29565b9150509250929050565b60008115159050919050565b610bc881610bb3565b82525050565b6000602082019050610be36000830184610bbf565b92915050565b600081519050919050565b600082825260208201905092915050565b6000819050602082019050919050565b610c1e8161099d565b82525050565b600081519050919050565b600082825260208201905092915050565b60005b83811015610c5e578082015181840152602081019050610c43565b60008484015250505050565b6000610c7582610c24565b610c7f8185610c2f565b9350610c8f818560208601610c40565b610c9881610a1b565b840191505092915050565b600073ffffffffffffffffffffffffffffffffffffffff82169050919050565b6000610cce82610ca3565b9050919050565b610cde81610cc3565b82525050565b600060a083016000830151610cfc6000860182610c15565b5060208301518482036020860152610d148282610c6a565b91505060408301518482036040860152610d2e8282610c6a565b9150506060830151610d436060860182610cd5565b506080830151610d566080860182610c15565b508091505092915050565b6000610d6d8383610ce4565b905092915050565b6000602082019050919050565b6000610d8d82610be9565b610d978185610bf4565b935083602082028501610da985610c05565b8060005b85811015610de55784840389528151610dc68582610d61565b9450610dd183610d75565b925060208a01995050600181019050610dad565b50829750879550505050505092915050565b60006020820190508181036000830152610e118184610d82565b905092915050565b600060208284031215610e2f57610e2e6109db565b5b6000610e3d848285016109fc565b91505092915050565b600060a083016000830151610e5e6000860182610c15565b5060208301518482036020860152610e768282610c6a565b91505060408301518482036040860152610e908282610c6a565b9150506060830151610ea56060860182610cd5565b506080830151610eb86080860182610c15565b508091505092915050565b60006020820190508181036000830152610edd8184610e46565b905092915050565b60008060408385031215610efc57610efb6109db565b5b600083013567ffffffffffffffff811115610f1a57610f196109e0565b5b610f2685828601610b29565b925050602083013567ffffffffffffffff811115610f4757610f466109e0565b5b610f5385828601610b29565b9150509250929050565b600082825260208201905092915050565b6000610f7982610c24565b610f838185610f5d565b9350610f93818560208601610c40565b610f9c81610a1b565b840191505092915050565b610fb081610cc3565b82525050565b600060a082019050610fcb60008301886109a7565b8181036020830152610fdd8187610f6e565b90508181036040830152610ff18186610f6e565b90506110006060830185610fa7565b61100d60808301846109a7565b9695505050505050565b7f4e487b7100000000000000000000000000000000000000000000000000000000600052602260045260246000fd5b6000600282049050600182168061105e57607f821691505b60208210810361107157611070611017565b5b50919050565b600081905092915050565b600061108d82610c24565b6110978185611077565b93506110a7818560208601610c40565b80840191505092915050565b60006110bf8284611082565b915081905092915050565b7f4e487b7100000000000000000000000000000000000000000000000000000000600052601160045260246000fd5b60006111048261099d565b915061110f8361099d565b9250828203905081811115611127576111266110ca565b5b92915050565b7f4e487b7100000000000000000000000000000000000000000000000000000000600052603260045260246000fd5b60006111678261099d565b91507fffffffffffffffffffffffffffffffffffffffffffffffffffffffffffffffff8203611199576111986110ca565b5b600182019050919050565b60008190508160005260206000209050919050565b60006020601f8301049050919050565b600082821b905092915050565b6000600883026112067fffffffffffffffffffffffffffffffffffffffffffffffffffffffffffffffff826111c9565b61121086836111c9565b95508019841693508086168417925050509392505050565b6000819050919050565b600061124d6112486112438461099d565b611228565b61099d565b9050919050565b6000819050919050565b61126783611232565b61127b61127382611254565b8484546111d6565b825550505050565b600090565b611290611283565b61129b81848461125e565b505050565b5b818110156112bf576112b4600082611288565b6001810190506112a1565b5050565b601f821115611304576112d5816111a4565b6112de846111b9565b810160208510156112ed578190505b6113016112f9856111b9565b8301826112a0565b50505b505050565b600082821c905092915050565b600061132760001984600802611309565b1980831691505092915050565b60006113408383611316565b9150826002028217905092915050565b61135982610c24565b67ffffffffffffffff81111561137257611371610a2c565b5b61137c8254611046565b6113878282856112c3565b600060209050601f8311600181146113ba57600084156113a8578287015190505b6113b28582611334565b86555061141a565b601f1984166113c8866111a4565b60005b828110156113f0578489015182556001820191506020850194506020810190506113cb565b8683101561140d5784890151611409601f891682611316565b8355505b6001600288020188555050505b505050505050565b6000602082019050818103600083015261143c8184610f6e565b90509291505056fea26469706673582212204a3597f327923922a2fc92436f829f4c97d6598db9751a4431afde99b363a42464736f6c634300081c0033",
  "linkReferences": {},
  "deployedLinkReferences": {}
}