{
  "_format": "hh-sol-artifact-1",
  "contractName": "EvidenceRegistry",
  "sourceName": "contracts/EvidenceRegistry.sol",
  "abi": [
    {
      "inputs": [],
      "stateMutability": "nonpayable",
      "type": "constructor"
    },
    {
      "anonymous": false,
      "inputs": [
        {
          "indexed": true,
          "internalType": "uint256",
          "name": "evidenceId",
          "type": "uint256"
        },
        {
          "indexed": false,
          "internalType": "string",
          "name": "ipfsHash",
          "type": "string"
        },
        {
          "indexed": false,
          "internalType": "string",
          "name": "fileHash",
          "type": "string"
        },
        {
          "indexed": true,
          "internalType": "address",
          "name": "uploader",
          "type": "address"
        }
      ],
      "name": "EvidenceAdded",
      "type": "event"
    },
    {
      "anonymous": false,
      "inputs": [
        {
          "indexed": true,
          "internalType": "uint256",
          "name": "pendingId",
          "type": "uint256"
        },
        {
          "indexed": true,
          "internalType": "address",
          "name": "approver",
          "type": "address"
        },
        {
          "indexed": false,
          "internalType": "uint256",
          "name": "currentApprovals",
          "type": "uint256"
        }
      ],
      "name": "EvidenceApproved",
      "type": "event"
    },
    {
      "anonymous": false,
      "inputs": [
        {
          "indexed": true,
          "internalType": "uint256",
          "name": "pendingId",
          "type": "uint256"
        },
        {
          "indexed": false,
          "internalType": "string",
          "name": "ipfsHash",
          "type": "string"
        },
        {
          "indexed": false,
          "internalType": "string",
          "name": "fileHash",
          "type": "string"
        },
        {
          "indexed": true,
          "internalType": "address",
          "name": "proposer",
          "type": "address"
        }
      ],
      "name": "EvidenceProposed",
      "type": "event"
    },
    {
      "anonymous": false,
      "inputs": [
        {
          "indexed": false,
          "internalType": "string",
          "name": "role",
          "type": "string"
        },
        {
          "indexed": true,
          "internalType": "address",
          "name": "account",
          "type": "address"
        }
      ],
      "name": "RoleGranted",
      "type": "event"
    },
    {
      "anonymous": false,
      "inputs": [
        {
          "indexed": false,
          "internalType": "string",
          "name": "role",
          "type": "string"
        },
        {
          "indexed": true,
          "internalType": "address",
          "name": "account",
          "type": "address"
        }
      ],
      "name": "RoleRevoked",
      "type": "event"
    },
    {
      "inputs": [
        {
          "internalType": "string",
          "name": "_ipfsHash",
          "type": "string"
        },
        {
          "internalType": "string",
          "name": "_fileHash",
          "type": "string"
        }
      ],
      "name": "addEvidence",
      "outputs": [],
      "stateMutability": "nonpayable",
      "type": "function"
    },
    {
      "inputs": [
        {
          "internalType": "uint256",
          "name": "_pendingId",
          "type": "uint256"
        }
      ],
      "name": "approveEvidence",
      "outputs": [],
      "stateMutability": "nonpayable",
      "type": "function"
    },
    {
      "inputs": [
        {
          "internalType": "address",
          "name": "_account",
          "type": "address"
        }
      ],
      "name": "checkIsInvestigator",
      "outputs": [
        {
          "internalType": "bool",
          "name": "",
          "type": "bool"
        }
      ],
      "stateMutability": "view",
      "type": "function"
    },
    {
      "inputs": [],
      "name": "getAllEvidence",
      "outputs": [
        {
          "components": [
            {
              "internalType": "uint256",
              "name": "evidenceId",
              "type": "uint256"
            },
            {
              "internalType": "string",
              "name": "ipfsHash",
              "type": "string"
            },
            {
              "internalType": "string",
              "name": "fileHash",
              "type": "string"
            },
            {
              "internalType": "address",
              "name": "uploader",
              "type": "address"
            },
            {
              "internalType": "uint256",
              "name": "timestamp",
              "type": "uint256"
            }
          ],
          "internalType": "struct EvidenceRegistry.Evidence[]",
          "name": "",
          "type": "tuple[]"
        }
      ],
      "stateMutability": "view",
      "type": "function"
    },
    {
      "inputs": [],
      "name": "getPendingEvidence",
      "outputs": [
        {
          "components": [
            {
              "internalType": "uint256",
              "name": "pendingId",
              "type": "uint256"
            },
            {
              "internalType": "string",
              "name": "ipfsHash",
              "type": "string"
            },
            {
              "internalType": "string",
              "name": "fileHash",
              "type": "string"
            },
            {
              "internalType": "address",
              "name": "proposer",
              "type": "address"
            },
            {
              "internalType": "uint256",
              "name": "timestamp",
              "type": "uint256"
            },
            {
              "internalType": "uint256",
              "name": "approvals",
              "type": "uint256"
            },
            {
              "internalType": "bool",
              "name": "finalized",
              "type": "bool"
            }
          ],
          "internalType": "struct EvidenceRegistry.PendingRecord[]",
          "name": "",
          "type": "tuple[]"
        }
      ],
      "stateMutability": "view",
      "type": "function"
    },
    {
      "inputs": [
        {
          "internalType": "address",
          "name": "_account",
          "type": "address"
        }
      ],
      "name": "grantInvestigator",
      "outputs": [],
      "stateMutability": "nonpayable",
      "type": "function"
    },
    {
      "inputs": [
        {
          "internalType": "uint256",
          "name": "",
          "type": "uint256"
        },
        {
          "internalType": "address",
          "name": "",
          "type": "address"
        }
      ],
      "name": "hasApproved",
      "outputs": [
        {
          "internalType": "bool",
          "name": "",
          "type": "bool"
        }
      ],
      "stateMutability": "view",
      "type": "function"
    },
    {
      "inputs": [
        {
          "internalType": "address",
          "name": "",
          "type": "address"
        }
      ],
      "name": "investigators",
      "outputs": [
        {
          "internalType": "bool",
          "name": "",
          "type": "bool"
        }
      ],
      "stateMutability": "view",
      "type": "function"
    },
    {
      "inputs": [],
      "name": "pendingCount",
      "outputs": [
        {
          "internalType": "uint256",
          "name": "",
          "type": "uint256"
        }
      ],
      "stateMutability": "view",
      "type": "function"
    },
    {
      "inputs": [
        {
          "internalType": "uint256",
          "name": "",
          "type": "uint256"
        }
      ],
      "name": "pendingRecords",
      "outputs": [
        {
          "internalType": "uint256",
          "name": "pendingId",
          "type": "uint256"
        },
        {
          "internalType": "string",
          "name": "ipfsHash",
          "type": "string"
        },
        {
          "internalType": "string",
          "name": "fileHash",
          "type": "string"
        },
        {
          "internalType": "address",
          "name": "proposer",
          "type": "address"
        },
        {
          "internalType": "uint256",
          "name": "timestamp",
          "type": "uint256"
        },
        {
          "internalType": "uint256",
          "name": "approvals",
          "type": "uint256"
        },
        {
          "internalType": "bool",
          "name": "finalized",
          "type": "bool"
        }
      ],
      "stateMutability": "view",
      "type": "function"
    },
    {
      "inputs": [
        {
          "internalType": "string",
          "name": "_ipfsHash",
          "type": "string"
        },
        {
          "internalType": "string",
          "name": "_fileHash",
          "type": "string"
        }
      ],
      "name": "proposeEvidence",
      "outputs": [],
      "stateMutability": "nonpayable",
      "type": "function"
    },
    {
      "inputs": [
        {
          "internalType": "address",
          "name": "_account",
          "type": "address"
        }
      ],
      "name": "revokeInvestigator",
      "outputs": [],
      "stateMutability": "nonpayable",
      "type": "function"
    },
    {
      "inputs": [],
      "name": "superAdmin",
      "outputs": [
        {
          "internalType": "address",
          "name": "",
          "type": "address"
        }
      ],
      "stateMutability": "view",
      "type": "function"
    }
  ],
  "bytecode": "0x6080604052348015600f57600080fd5b50336000806101000a81548173ffffffffffffffffffffffffffffffffffffffff021916908373ffffffffffffffffffffffffffffffffffffffff16021790555060018060003373ffffffffffffffffffffffffffffffffffffffff1673ffffffffffffffffffffffffffffffffffffffff16815260200190815260200160002060006101000a81548160ff0219169083151502179055506127e2806100b66000396000f3fe608060405234801561001057600080fd5b50600436106100cf5760003560e01c8063c22cf0171161008c578063ccb8762d11610066578063ccb8762d14610218578063ea70b4af14610248578063eb5c0bea14610266578063ef71a2f914610282576100cf565b8063c22cf017146101c0578063c5674943146101de578063cc6f49cc146101fc576100cf565b80632358d5a8146100d457806329575f6a1461010457806359ca0623146101225780637da5f6a61461013e5780638e66464e1461016e57806391fbf68f1461018a575b600080fd5b6100ee60048036038101906100e991906118a5565b61029e565b6040516100fb9190611900565b60405180910390f35b61010c6102cd565b604051610119919061192a565b60405180910390f35b61013c60048036038101906101379190611945565b6102f1565b005b61015860048036038101906101539190611945565b610425565b6040516101659190611900565b60405180910390f35b61018860048036038101906101839190611ab8565b610445565b005b6101a4600480360381019061019f9190611b30565b610719565b6040516101b79796959493929190611beb565b60405180910390f35b6101c8610898565b6040516101d59190611e0f565b60405180910390f35b6101e6610a85565b6040516101f39190611fa5565b60405180910390f35b61021660048036038101906102119190611b30565b610d8f565b005b610232600480360381019061022d9190611945565b611382565b60405161023f9190611900565b60405180910390f35b61025061142e565b60405161025d9190611fc7565b60405180910390f35b610280600480360381019061027b9190611ab8565b611434565b005b61029c60048036038101906102979190611945565b611673565b005b60056020528160005260406000206020528060005260406000206000915091509054906101000a900460ff1681565b60008054906101000a900473ffffffffffffffffffffffffffffffffffffffff1681565b60008054906101000a900473ffffffffffffffffffffffffffffffffffffffff1673ffffffffffffffffffffffffffffffffffffffff163373ffffffffffffffffffffffffffffffffffffffff161461037f576040517f08c379a00000000000000000000000000000000000000000000000000000000081526004016103769061202e565b60405180910390fd5b60018060008373ffffffffffffffffffffffffffffffffffffffff1673ffffffffffffffffffffffffffffffffffffffff16815260200190815260200160002060006101000a81548160ff0219169083151502179055508073ffffffffffffffffffffffffffffffffffffffff167f606c98545793c0df614e4a07a49270302c92a296bcdbcf571aaae6655540af9960405161041a9061209a565b60405180910390a250565b60016020528060005260406000206000915054906101000a900460ff1681565b600160003373ffffffffffffffffffffffffffffffffffffffff1673ffffffffffffffffffffffffffffffffffffffff16815260200190815260200160002060009054906101000a900460ff16806104e8575060008054906101000a900473ffffffffffffffffffffffffffffffffffffffff1673ffffffffffffffffffffffffffffffffffffffff163373ffffffffffffffffffffffffffffffffffffffff16145b610527576040517f08c379a000000000000000000000000000000000000000000000000000000000815260040161051e9061212c565b60405180910390fd5b6003600081548092919061053a9061217b565b91905055506040518060e0016040528060035481526020018381526020018281526020013373ffffffffffffffffffffffffffffffffffffffff16815260200142815260200160018152602001600015158152506004600060035481526020019081526020016000206000820151816000015560208201518160010190816105c291906123cf565b5060408201518160020190816105d891906123cf565b5060608201518160030160006101000a81548173ffffffffffffffffffffffffffffffffffffffff021916908373ffffffffffffffffffffffffffffffffffffffff1602179055506080820151816004015560a0820151816005015560c08201518160060160006101000a81548160ff021916908315150217905550905050600160056000600354815260200190815260200160002060003373ffffffffffffffffffffffffffffffffffffffff1673ffffffffffffffffffffffffffffffffffffffff16815260200190815260200160002060006101000a81548160ff0219169083151502179055503373ffffffffffffffffffffffffffffffffffffffff166003547fb8f9ad229f3afd622df9fb19448c4507a8e1c679d1936fc8510b354ad34e2ec8848460405161070d9291906124a1565b60405180910390a35050565b6004602052806000526040600020600091509050806000015490806001018054610742906121f2565b80601f016020809104026020016040519081016040528092919081815260200182805461076e906121f2565b80156107bb5780601f10610790576101008083540402835291602001916107bb565b820191906000526020600020905b81548152906001019060200180831161079e57829003601f168201915b5050505050908060020180546107d0906121f2565b80601f01602080910402602001604051908101604052809291908181526020018280546107fc906121f2565b80156108495780601f1061081e57610100808354040283529160200191610849565b820191906000526020600020905b81548152906001019060200180831161082c57829003601f168201915b5050505050908060030160009054906101000a900473ffffffffffffffffffffffffffffffffffffffff16908060040154908060050154908060060160009054906101000a900460ff16905087565b60606002805480602002602001604051908101604052809291908181526020016000905b82821015610a7c57838290600052602060002090600502016040518060a0016040529081600082015481526020016001820180546108f9906121f2565b80601f0160208091040260200160405190810160405280929190818152602001828054610925906121f2565b80156109725780601f1061094757610100808354040283529160200191610972565b820191906000526020600020905b81548152906001019060200180831161095557829003601f168201915b5050505050815260200160028201805461098b906121f2565b80601f01602080910402602001604051908101604052809291908181526020018280546109b7906121f2565b8015610a045780601f106109d957610100808354040283529160200191610a04565b820191906000526020600020905b8154815290600101906020018083116109e757829003601f168201915b505050505081526020016003820160009054906101000a900473ffffffffffffffffffffffffffffffffffffffff1673ffffffffffffffffffffffffffffffffffffffff1673ffffffffffffffffffffffffffffffffffffffff168152602001600482015481525050815260200190600101906108bc565b50505050905090565b6060600080600190505b6003548111610ae2576004600082815260200190815260200160002060060160009054906101000a900460ff16610acf578180610acb9061217b565b9250505b8080610ada9061217b565b915050610a8f565b5060008167ffffffffffffffff811115610aff57610afe61198d565b5b604051908082528060200260200182016040528015610b3857816020015b610b256117a8565b815260200190600190039081610b1d5790505b509050600080600190505b6003548111610d85576004600082815260200190815260200160002060060160009054906101000a900460ff16610d7257600460008281526020019081526020016000206040518060e001604052908160008201548152602001600182018054610bac906121f2565b80601f0160208091040260200160405190810160405280929190818152602001828054610bd8906121f2565b8015610c255780601f10610bfa57610100808354040283529160200191610c25565b820191906000526020600020905b815481529060010190602001808311610c0857829003601f168201915b50505050508152602001600282018054610c3e906121f2565b80601f0160208091040260200160405190810160405280929190818152602001828054610c6a906121f2565b8015610cb75780601f10610c8c57610100808354040283529160200191610cb7565b820191906000526020600020905b815481529060010190602001808311610c9a57829003601f168201915b505050505081526020016003820160009054906101000a900473ffffffffffffffffffffffffffffffffffffffff1673ffffffffffffffffffffffffffffffffffffffff1673ffffffffffffffffffffffffffffffffffffffff16815260200160048201548152602001600582015481526020016006820160009054906101000a900460ff161515151581525050838381518110610d5857610d576124d8565b5b60200260200101819052508180610d6e9061217b565b9250505b8080610d7d9061217b565b915050610b43565b5081935050505090565b600160003373ffffffffffffffffffffffffffffffffffffffff1673ffffffffffffffffffffffffffffffffffffffff16815260200190815260200160002060009054906101000a900460ff1680610e32575060008054906101000a900473ffffffffffffffffffffffffffffffffffffffff1673ffffffffffffffffffffffffffffffffffffffff163373ffffffffffffffffffffffffffffffffffffffff16145b610e71576040517f08c379a0000000000000000000000000000000000000000000000000000000008152600401610e689061212c565b60405180910390fd5b60006004600083815260200190815260200160002090506000816000015403610ecf576040517f08c379a0000000000000000000000000000000000000000000000000000000008152600401610ec690612579565b60405180910390fd5b8060060160009054906101000a900460ff1615610f21576040517f08c379a0000000000000000000000000000000000000000000000000000000008152600401610f189061260b565b60405180910390fd5b6005600083815260200190815260200160002060003373ffffffffffffffffffffffffffffffffffffffff1673ffffffffffffffffffffffffffffffffffffffff16815260200190815260200160002060009054906101000a900460ff1615610fbf576040517f08c379a0000000000000000000000000000000000000000000000000000000008152600401610fb69061269d565b60405180910390fd5b60016005600084815260200190815260200160002060003373ffffffffffffffffffffffffffffffffffffffff1673ffffffffffffffffffffffffffffffffffffffff16815260200190815260200160002060006101000a81548160ff02191690831515021790555080600501600081548092919061103d9061217b565b91905055503373ffffffffffffffffffffffffffffffffffffffff16827f09e9a1650a712e6e7e9387f308474649a8070c33f1ed1d3ecf7f16294735f056836005015460405161108d9190611fc7565b60405180910390a3600281600501541061137e5760018160060160006101000a81548160ff021916908315150217905550600060016002805490506110d291906126bd565b905060026040518060a001604052808381526020018460010180546110f6906121f2565b80601f0160208091040260200160405190810160405280929190818152602001828054611122906121f2565b801561116f5780601f106111445761010080835404028352916020019161116f565b820191906000526020600020905b81548152906001019060200180831161115257829003601f168201915b50505050508152602001846002018054611188906121f2565b80601f01602080910402602001604051908101604052809291908181526020018280546111b4906121f2565b80156112015780601f106111d657610100808354040283529160200191611201565b820191906000526020600020905b8154815290600101906020018083116111e457829003601f168201915b505050505081526020018460030160009054906101000a900473ffffffffffffffffffffffffffffffffffffffff1673ffffffffffffffffffffffffffffffffffffffff16815260200142815250908060018154018082558091505060019003906000526020600020906005020160009091909190915060008201518160000155602082015181600101908161129791906123cf565b5060408201518160020190816112ad91906123cf565b5060608201518160030160006101000a81548173ffffffffffffffffffffffffffffffffffffffff021916908373ffffffffffffffffffffffffffffffffffffffff1602179055506080820151816004015550508160030160009054906101000a900473ffffffffffffffffffffffffffffffffffffffff1673ffffffffffffffffffffffffffffffffffffffff16817f0a2627ef79b7388b77d07652a60137d9b359a689f2d609cf8704f9798b9394908460010185600201604051611374929190612775565b60405180910390a3505b5050565b6000600160008373ffffffffffffffffffffffffffffffffffffffff1673ffffffffffffffffffffffffffffffffffffffff16815260200190815260200160002060009054906101000a900460ff1680611427575060008054906101000a900473ffffffffffffffffffffffffffffffffffffffff1673ffffffffffffffffffffffffffffffffffffffff168273ffffffffffffffffffffffffffffffffffffffff16145b9050919050565b60035481565b600160003373ffffffffffffffffffffffffffffffffffffffff1673ffffffffffffffffffffffffffffffffffffffff16815260200190815260200160002060009054906101000a900460ff16806114d7575060008054906101000a900473ffffffffffffffffffffffffffffffffffffffff1673ffffffffffffffffffffffffffffffffffffffff163373ffffffffffffffffffffffffffffffffffffffff16145b611516576040517f08c379a000000000000000000000000000000000000000000000000000000000815260040161150d9061212c565b60405180910390fd5b6000600160028054905061152a91906126bd565b905060026040518060a001604052808381526020018581526020018481526020013373ffffffffffffffffffffffffffffffffffffffff1681526020014281525090806001815401808255809150506001900390600052602060002090600502016000909190919091506000820151816000015560208201518160010190816115b391906123cf565b5060408201518160020190816115c991906123cf565b5060608201518160030160006101000a81548173ffffffffffffffffffffffffffffffffffffffff021916908373ffffffffffffffffffffffffffffffffffffffff1602179055506080820151816004015550503373ffffffffffffffffffffffffffffffffffffffff16817f0a2627ef79b7388b77d07652a60137d9b359a689f2d609cf8704f9798b93949085856040516116669291906124a1565b60405180910390a3505050565b60008054906101000a900473ffffffffffffffffffffffffffffffffffffffff1673ffffffffffffffffffffffffffffffffffffffff163373ffffffffffffffffffffffffffffffffffffffff1614611701576040517f08c379a00000000000000000000000000000000000000000000000000000000081526004016116f89061202e565b60405180910390fd5b6000600160008373ffffffffffffffffffffffffffffffffffffffff1673ffffffffffffffffffffffffffffffffffffffff16815260200190815260200160002060006101000a81548160ff0219169083151502179055508073ffffffffffffffffffffffffffffffffffffffff167f1e5d48c75f77ab7fd581247d777530d4e8c18432289e14017ba995532f6ca1cf60405161179d9061209a565b60405180910390a250565b6040518060e00160405280600081526020016060815260200160608152602001600073ffffffffffffffffffffffffffffffffffffffff16815260200160008152602001600081526020016000151581525090565b6000604051905090565b600080fd5b600080fd5b6000819050919050565b61182481611811565b811461182f57600080fd5b50565b6000813590506118418161181b565b92915050565b600073ffffffffffffffffffffffffffffffffffffffff82169050919050565b600061187282611847565b9050919050565b61188281611867565b811461188d57600080fd5b50565b60008135905061189f81611879565b92915050565b600080604083850312156118bc576118bb611807565b5b60006118ca85828601611832565b92505060206118db85828601611890565b9150509250929050565b60008115159050919050565b6118fa816118e5565b82525050565b600060208201905061191560008301846118f1565b92915050565b61192481611867565b82525050565b600060208201905061193f600083018461191b565b92915050565b60006020828403121561195b5761195a611807565b5b600061196984828501611890565b91505092915050565b600080fd5b600080fd5b6000601f19601f8301169050919050565b7f4e487b7100000000000000000000000000000000000000000000000000000000600052604160045260246000fd5b6119c58261197c565b810181811067ffffffffffffffff821117156119e4576119e361198d565b5b80604052505050565b60006119f76117fd565b9050611a0382826119bc565b919050565b600067ffffffffffffffff821115611a2357611a2261198d565b5b611a2c8261197c565b9050602081019050919050565b82818337600083830152505050565b6000611a5b611a5684611a08565b6119ed565b905082815260208101848484011115611a7757611a76611977565b5b611a82848285611a39565b509392505050565b600082601f830112611a9f57611a9e611972565b5b8135611aaf848260208601611a48565b91505092915050565b60008060408385031215611acf57611ace611807565b5b600083013567ffffffffffffffff811115611aed57611aec61180c565b5b611af985828601611a8a565b925050602083013567ffffffffffffffff811115611b1a57611b1961180c565b5b611b2685828601611a8a565b9150509250929050565b600060208284031215611b4657611b45611807565b5b6000611b5484828501611832565b91505092915050565b611b6681611811565b82525050565b600081519050919050565b600082825260208201905092915050565b60005b83811015611ba6578082015181840152602081019050611b8b565b60008484015250505050565b6000611bbd82611b6c565b611bc78185611b77565b9350611bd7818560208601611b88565b611be08161197c565b840191505092915050565b600060e082019050611c00600083018a611b5d565b8181036020830152611c128189611bb2565b90508181036040830152611c268188611bb2565b9050611c35606083018761191b565b611c426080830186611b5d565b611c4f60a0830185611b5d565b611c5c60c08301846118f1565b98975050505050505050565b600081519050919050565b600082825260208201905092915050565b6000819050602082019050919050565b611c9d81611811565b82525050565b600082825260208201905092915050565b6000611cbf82611b6c565b611cc98185611ca3565b9350611cd9818560208601611b88565b611ce28161197c565b840191505092915050565b611cf681611867565b82525050565b600060a083016000830151611d146000860182611c94565b5060208301518482036020860152611d2c8282611cb4565b91505060408301518482036040860152611d468282611cb4565b9150506060830151611d5b6060860182611ced565b506080830151611d6e6080860182611c94565b508091505092915050565b6000611d858383611cfc565b905092915050565b6000602082019050919050565b6000611da582611c68565b611daf8185611c73565b935083602082028501611dc185611c84565b8060005b85811015611dfd5784840389528151611dde8582611d79565b9450611de983611d8d565b925060208a01995050600181019050611dc5565b50829750879550505050505092915050565b60006020820190508181036000830152611e298184611d9a565b905092915050565b600081519050919050565b600082825260208201905092915050565b6000819050602082019050919050565b611e66816118e5565b82525050565b600060e083016000830151611e846000860182611c94565b5060208301518482036020860152611e9c8282611cb4565b91505060408301518482036040860152611eb68282611cb4565b9150506060830151611ecb6060860182611ced565b506080830151611ede6080860182611c94565b5060a0830151611ef160a0860182611c94565b5060c0830151611f0460c0860182611e5d565b508091505092915050565b6000611f1b8383611e6c565b905092915050565b6000602082019050919050565b6000611f3b82611e31565b611f458185611e3c565b935083602082028501611f5785611e4d565b8060005b85811015611f935784840389528151611f748582611f0f565b9450611f7f83611f23565b925060208a01995050600181019050611f5b565b50829750879550505050505092915050565b60006020820190508181036000830152611fbf8184611f30565b905092915050565b6000602082019050611fdc6000830184611b5d565b92915050565b7f536563757269747920416c6572743a2041646d696e73206f6e6c792e00000000600082015250565b6000612018601c83611b77565b915061202382611fe2565b602082019050919050565b600060208201905081810360008301526120478161200b565b9050919050565b7f496e76657374696761746f720000000000000000000000000000000000000000600082015250565b6000612084600c83611b77565b915061208f8261204e565b602082019050919050565b600060208201905081810360008301526120b381612077565b9050919050565b7f536563757269747920416c6572743a20556e617574686f72697a65642077616c60008201527f6c65742e20496e76657374696761746f7273206f6e6c792e0000000000000000602082015250565b6000612116603883611b77565b9150612121826120ba565b604082019050919050565b6000602082019050818103600083015261214581612109565b9050919050565b7f4e487b7100000000000000000000000000000000000000000000000000000000600052601160045260246000fd5b600061218682611811565b91507fffffffffffffffffffffffffffffffffffffffffffffffffffffffffffffffff82036121b8576121b761214c565b5b600182019050919050565b7f4e487b7100000000000000000000000000000000000000000000000000000000600052602260045260246000fd5b6000600282049050600182168061220a57607f821691505b60208210810361221d5761221c6121c3565b5b50919050565b60008190508160005260206000209050919050565b60006020601f8301049050919050565b600082821b905092915050565b6000600883026122857fffffffffffffffffffffffffffffffffffffffffffffffffffffffffffffffff82612248565b61228f8683612248565b95508019841693508086168417925050509392505050565b6000819050919050565b60006122cc6122c76122c284611811565b6122a7565b611811565b9050919050565b6000819050919050565b6122e6836122b1565b6122fa6122f2826122d3565b848454612255565b825550505050565b600090565b61230f612302565b61231a8184846122dd565b505050565b5b8181101561233e57612333600082612307565b600181019050612320565b5050565b601f8211156123835761235481612223565b61235d84612238565b8101602085101561236c578190505b61238061237885612238565b83018261231f565b50505b505050565b600082821c905092915050565b60006123a660001984600802612388565b1980831691505092915050565b60006123bf8383612395565b9150826002028217905092915050565b6123d882611b6c565b67ffffffffffffffff8111156123f1576123f061198d565b5b6123fb82546121f2565b612406828285612342565b600060209050601f8311600181146124395760008415612427578287015190505b61243185826123b3565b865550612499565b601f19841661244786612223565b60005b8281101561246f5784890151825560018201915060208501945060208101905061244a565b8683101561248c5784890151612488601f891682612395565b8355505b6001600288020188555050505b505050505050565b600060408201905081810360008301526124bb8185611bb2565b905081810360208301526124cf8184611bb2565b90509392505050565b7f4e487b7100000000000000000000000000000000000000000000000000000000600052603260045260246000fd5b7f536563757269747920416c6572743a205265636f726420646f6573206e6f742060008201527f65786973742e0000000000000000000000000000000000000000000000000000602082015250565b6000612563602683611b77565b915061256e82612507565b604082019050919050565b6000602082019050818103600083015261259281612556565b9050919050565b7f536563757269747920416c6572743a205265636f726420616c7265616479206660008201527f696e616c697a65642e0000000000000000000000000000000000000000000000602082015250565b60006125f5602983611b77565b915061260082612599565b604082019050919050565b60006020820190508181036000830152612624816125e8565b9050919050565b7f536563757269747920416c6572743a20596f75206861766520616c726561647960008201527f20617070726f7665642074686973207265636f72642e00000000000000000000602082015250565b6000612687603683611b77565b91506126928261262b565b604082019050919050565b600060208201905081810360008301526126b68161267a565b9050919050565b60006126c882611811565b91506126d383611811565b92508282019050808211156126eb576126ea61214c565b5b92915050565b600081546126fe816121f2565b6127088186611b77565b9450600182166000811461272357600181146127395761276c565b60ff19831686528115156020028601935061276c565b61274285612223565b60005b8381101561276457815481890152600182019150602081019050612745565b808801955050505b50505092915050565b6000604082019050818103600083015261278f81856126f1565b905081810360208301526127a381846126f1565b9050939250505056fea2646970667358221220e84cbc7eca30f3b932fe7ce7b9257f12f3445d46d763c2b6c737d8aedc4793e164736f6c634300081c0033",
  "linkReferences": {},
  "deployedLinkReferences": {}
}