{
  "_format": "hh-sol-artifact-1",
  "contractName": "EvidenceRegistry",
  "sourceName": "contracts/EvidenceRegistry.sol",
  "abi": [
    {
      "inputs": [],
      "stateMutability": "nonpayable",
      "type": "constructor"
    },
    {
      "anonymous": false,
      "inputs": [
        {
          "indexed": true,
          "internalType": "uint256",
          "name": "evidenceId",
          "type": "uint256"
        },
        {
          "indexed": true,
          "internalType": "address",
          "name": "viewer",
          "type": "address"
        }
      ],
      "name": "EvidenceAccessed",
      "type": "event"
    },
    {
      "anonymous": false,
      "inputs": [
        {
          "indexed": true,
          "internalType": "uint256",
          "name": "evidenceId",
          "type": "uint256"
        },
        {
          "indexed": false,
          "internalType": "string",
          "name": "ipfsHash",
          "type": "string"
        },
        {
          "indexed": false,
          "internalType": "string",
          "name": "fileHash",
          "type": "string"
        },
        {
          "indexed": true,
          "internalType": "address",
          "name": "uploader",
          "type": "address"
        }
      ],
      "name": "EvidenceAdded",
      "type": "event"
    },
    {
      "anonymous": false,
      "inputs": [
        {
          "indexed": true,
          "internalType": "uint256",
          "name": "pendingId",
          "type": "uint256"
        },
        {
          "indexed": true,
          "internalType": "address",
          "name": "approver",
          "type": "address"
        },
        {
          "indexed": false,
          "internalType": "uint256",
          "name": "currentApprovals",
          "type": "uint256"
        }
      ],
      "name": "EvidenceApproved",
      "type": "event"
    },
    {
      "anonymous": false,
      "inputs": [
        {
          "indexed": true,
          "internalType": "uint256",
          "name": "pendingId",
          "type": "uint256"
        },
        {
          "indexed": false,
          "internalType": "string",
          "name": "ipfsHash",
          "type": "string"
        },
        {
          "indexed": false,
          "internalType": "string",
          "name": "fileHash",
          "type": "string"
        },
        {
          "indexed": true,
          "internalType": "address",
          "name": "proposer",
          "type": "address"
        }
      ],
      "name": "EvidenceProposed",
      "type": "event"
    },
    {
      "anonymous": false,
      "inputs": [
        {
          "indexed": false,
          "internalType": "string",
          "name": "role",
          "type": "string"
        },
        {
          "indexed": true,
          "internalType": "address",
          "name": "account",
          "type": "address"
        }
      ],
      "name": "RoleGranted",
      "type": "event"
    },
    {
      "anonymous": false,
      "inputs": [
        {
          "indexed": false,
          "internalType": "string",
          "name": "role",
          "type": "string"
        },
        {
          "indexed": true,
          "internalType": "address",
          "name": "account",
          "type": "address"
        }
      ],
      "name": "RoleRevoked",
      "type": "event"
    },
    {
      "inputs": [
        {
          "internalType": "uint256",
          "name": "",
          "type": "uint256"
        },
        {
          "internalType": "uint256",
          "name": "",
          "type": "uint256"
        }
      ],
      "name": "accessLogs",
      "outputs": [
        {
          "internalType": "address",
          "name": "viewer",
          "type": "address"
        },
        {
          "internalType": "uint256",
          "name": "timestamp",
          "type": "uint256"
        }
      ],
      "stateMutability": "view",
      "type": "function"
    },
    {
      "inputs": [
        {
          "internalType": "string",
          "name": "_ipfsHash",
          "type": "string"
        },
        {
          "internalType": "string",
          "name": "_fileHash",
          "type": "string"
        }
      ],
      "name": "addEvidence",
      "outputs": [],
      "stateMutability": "nonpayable",
      "type": "function"
    },
    {
      "inputs": [
        {
          "internalType": "uint256",
          "name": "_pendingId",
          "type": "uint256"
        }
      ],
      "name": "approveEvidence",
      "outputs": [],
      "stateMutability": "nonpayable",
      "type": "function"
    },
    {
      "inputs": [
        {
          "internalType": "address",
          "name": "_account",
          "type": "address"
        }
      ],
      "name": "checkIsInvestigator",
      "outputs": [
        {
          "internalType": "bool",
          "name": "",
          "type": "bool"
        }
      ],
      "stateMutability": "view",
      "type": "function"
    },
    {
      "inputs": [
        {
          "internalType": "uint256",
          "name": "_evidenceId",
          "type": "uint256"
        }
      ],
      "name": "getAccessLogs",
      "outputs": [
        {
          "components": [
            {
              "internalType": "address",
              "name": "viewer",
              "type": "address"
            },
            {
              "internalType": "uint256",
              "name": "timestamp",
              "type": "uint256"
            }
          ],
          "internalType": "struct EvidenceRegistry.AccessLog[]",
          "name": "",
          "type": "tuple[]"
        }
      ],
      "stateMutability": "view",
      "type": "function"
    },
    {
      "inputs": [],
      "name": "getAllEvidence",
      "outputs": [
        {
          "components": [
            {
              "internalType": "uint256",
              "name": "evidenceId",
              "type": "uint256"
            },
            {
              "internalType": "string",
              "name": "ipfsHash",
              "type": "string"
            },
            {
              "internalType": "string",
              "name": "fileHash",
              "type": "string"
            },
            {
              "internalType": "address",
              "name": "uploader",
              "type": "address"
            },
            {
              "internalType": "uint256",
              "name": "timestamp",
              "type": "uint256"
            }
          ],
          "internalType": "struct EvidenceRegistry.Evidence[]",
          "name": "",
          "type": "tuple[]"
        }
      ],
      "stateMutability": "view",
      "type": "function"
    },
    {
      "inputs": [],
      "name": "getPendingEvidence",
      "outputs": [
        {
          "components": [
            {
              "internalType": "uint256",
              "name": "pendingId",
              "type": "uint256"
            },
            {
              "internalType": "string",
              "name": "ipfsHash",
              "type": "string"
            },
            {
              "internalType": "string",
              "name": "fileHash",
              "type": "string"
            },
            {
              "internalType": "address",
              "name": "proposer",
              "type": "address"
            },
            {
              "internalType": "uint256",
              "name": "timestamp",
              "type": "uint256"
            },
            {
              "internalType": "uint256",
              "name": "approvals",
              "type": "uint256"
            },
            {
              "internalType": "bool",
              "name": "finalized",
              "type": "bool"
            }
          ],
          "internalType": "struct EvidenceRegistry.PendingRecord[]",
          "name": "",
          "type": "tuple[]"
        }
      ],
      "stateMutability": "view",
      "type": "function"
    },
    {
      "inputs": [
        {
          "internalType": "address",
          "name": "_account",
          "type": "address"
        }
      ],
      "name": "grantInvestigator",
      "outputs": [],
      "stateMutability": "nonpayable",
      "type": "function"
    },
    {
      "inputs": [
        {
          "internalType": "uint256",
          "name": "",
          "type": "uint256"
        },
        {
          "internalType": "address",
          "name": "",
          "type": "address"
        }
      ],
      "name": "hasApproved",
      "outputs": [
        {
          "internalType": "bool",
          "name": "",
          "type": "bool"
        }
      ],
      "stateMutability": "view",
      "type": "function"
    },
    {
      "inputs": [
        {
          "internalType": "address",
          "name": "",
          "type": "address"
        }
      ],
      "name": "investigators",
      "outputs": [
        {
          "internalType": "bool",
          "name": "",
          "type": "bool"
        }
      ],
      "stateMutability": "view",
      "type": "function"
    },
    {
      "inputs": [
        {
          "internalType": "uint256",
          "name": "_evidenceId",
          "type": "uint256"
        }
      ],
      "name": "logAccess",
      "outputs": [],
      "stateMutability": "nonpayable",
      "type": "function"
    },
    {
      "inputs": [],
      "name": "pendingCount",
      "outputs": [
        {
          "internalType": "uint256",
          "name": "",
          "type": "uint256"
        }
      ],
      "stateMutability": "view",
      "type": "function"
    },
    {
      "inputs": [
        {
          "internalType": "uint256",
          "name": "",
          "type": "uint256"
        }
      ],
      "name": "pendingRecords",
      "outputs": [
        {
          "internalType": "uint256",
          "name": "pendingId",
          "type": "uint256"
        },
        {
          "internalType": "string",
          "name": "ipfsHash",
          "type": "string"
        },
        {
          "internalType": "string",
          "name": "fileHash",
          "type": "string"
        },
        {
          "internalType": "address",
          "name": "proposer",
          "type": "address"
        },
        {
          "internalType": "uint256",
          "name": "timestamp",
          "type": "uint256"
        },
        {
          "internalType": "uint256",
          "name": "approvals",
          "type": "uint256"
        },
        {
          "internalType": "bool",
          "name": "finalized",
          "type": "bool"
        }
      ],
      "stateMutability": "view",
      "type": "function"
    },
    {
      "inputs": [
        {
          "internalType": "string",
          "name": "_ipfsHash",
          "type": "string"
        },
        {
          "internalType": "string",
          "name": "_fileHash",
          "type": "string"
        }
      ],
      "name": "proposeEvidence",
      "outputs": [],
      "stateMutability": "nonpayable",
      "type": "function"
    },
    {
      "inputs": [
        {
          "internalType": "address",
          "name": "_account",
          "type": "address"
        }
      ],
      "name": "revokeInvestigator",
      "outputs": [],
      "stateMutability": "nonpayable",
      "type": "function"
    },
    {
      "inputs": [],
      "name": "superAdmin",
      "outputs": [
        {
          "internalType": "address",
          "name": "",
          "type": "address"
        }
      ],
      "stateMutability": "view",
      "type": "function"
    }
  ],
  "bytecode": "0x6080604052348015600f57600080fd5b50336000806101000a81548173ffffffffffffffffffffffffffffffffffffffff021916908373ffffffffffffffffffffffffffffffffffffffff16021790555060018060003373ffffffffffffffffffffffffffffffffffffffff1673ffffffffffffffffffffffffffffffffffffffff16815260200190815260200160002060006101000a81548160ff021916908315150217905550612c81806100b66000396000f3fe608060405234801561001057600080fd5b50600436106101005760003560e01c8063be6ff6f711610097578063ccb8762d11610066578063ccb8762d146102c6578063ea70b4af146102f6578063eb5c0bea14610314578063ef71a2f91461033057610100565b8063be6ff6f71461023e578063c22cf0171461026e578063c56749431461028c578063cc6f49cc146102aa57610100565b80637da5f6a6116100d35780637da5f6a61461018b5780638e66464e146101bb57806391fbf68f146101d7578063a04220d41461020d57610100565b80632358d5a81461010557806329575f6a1461013557806359ca0623146101535780635f4c5e501461016f575b600080fd5b61011f600480360381019061011a9190611bdb565b61034c565b60405161012c9190611c36565b60405180910390f35b61013d61037b565b60405161014a9190611c60565b60405180910390f35b61016d60048036038101906101689190611c7b565b61039f565b005b61018960048036038101906101849190611ca8565b6104d3565b005b6101a560048036038101906101a09190611c7b565b610628565b6040516101b29190611c36565b60405180910390f35b6101d560048036038101906101d09190611e1b565b610648565b005b6101f160048036038101906101ec9190611ca8565b61091c565b6040516102049796959493929190611f21565b60405180910390f35b61022760048036038101906102229190611f9e565b610a9b565b604051610235929190611fde565b60405180910390f35b61025860048036038101906102539190611ca8565b610afc565b6040516102659190612103565b60405180910390f35b610276610bce565b60405161028391906122ae565b60405180910390f35b610294610dbb565b6040516102a19190612444565b60405180910390f35b6102c460048036038101906102bf9190611ca8565b6110c5565b005b6102e060048036038101906102db9190611c7b565b6116b8565b6040516102ed9190611c36565b60405180910390f35b6102fe611764565b60405161030b9190612466565b60405180910390f35b61032e60048036038101906103299190611e1b565b61176a565b005b61034a60048036038101906103459190611c7b565b6119a9565b005b60056020528160005260406000206020528060005260406000206000915091509054906101000a900460ff1681565b60008054906101000a900473ffffffffffffffffffffffffffffffffffffffff1681565b60008054906101000a900473ffffffffffffffffffffffffffffffffffffffff1673ffffffffffffffffffffffffffffffffffffffff163373ffffffffffffffffffffffffffffffffffffffff161461042d576040517f08c379a0000000000000000000000000000000000000000000000000000000008152600401610424906124cd565b60405180910390fd5b60018060008373ffffffffffffffffffffffffffffffffffffffff1673ffffffffffffffffffffffffffffffffffffffff16815260200190815260200160002060006101000a81548160ff0219169083151502179055508073ffffffffffffffffffffffffffffffffffffffff167f606c98545793c0df614e4a07a49270302c92a296bcdbcf571aaae6655540af996040516104c890612539565b60405180910390a250565b6000811180156104e857506002805490508111155b610527576040517f08c379a000000000000000000000000000000000000000000000000000000000815260040161051e906125cb565b60405180910390fd5b6006600082815260200190815260200160002060405180604001604052803373ffffffffffffffffffffffffffffffffffffffff16815260200142815250908060018154018082558091505060019003906000526020600020906002020160009091909190915060008201518160000160006101000a81548173ffffffffffffffffffffffffffffffffffffffff021916908373ffffffffffffffffffffffffffffffffffffffff1602179055506020820151816001015550503373ffffffffffffffffffffffffffffffffffffffff16817fbc23b0206bf426495596a27c181ab2b7882d4d0e1f45d325cfb2c73c8f64ba5860405160405180910390a350565b60016020528060005260406000206000915054906101000a900460ff1681565b600160003373ffffffffffffffffffffffffffffffffffffffff1673ffffffffffffffffffffffffffffffffffffffff16815260200190815260200160002060009054906101000a900460ff16806106eb575060008054906101000a900473ffffffffffffffffffffffffffffffffffffffff1673ffffffffffffffffffffffffffffffffffffffff163373ffffffffffffffffffffffffffffffffffffffff16145b61072a576040517f08c379a00000000000000000000000000000000000000000000000000000000081526004016107219061265d565b60405180910390fd5b6003600081548092919061073d906126ac565b91905055506040518060e0016040528060035481526020018381526020018281526020013373ffffffffffffffffffffffffffffffffffffffff16815260200142815260200160018152602001600015158152506004600060035481526020019081526020016000206000820151816000015560208201518160010190816107c59190612900565b5060408201518160020190816107db9190612900565b5060608201518160030160006101000a81548173ffffffffffffffffffffffffffffffffffffffff021916908373ffffffffffffffffffffffffffffffffffffffff1602179055506080820151816004015560a0820151816005015560c08201518160060160006101000a81548160ff021916908315150217905550905050600160056000600354815260200190815260200160002060003373ffffffffffffffffffffffffffffffffffffffff1673ffffffffffffffffffffffffffffffffffffffff16815260200190815260200160002060006101000a81548160ff0219169083151502179055503373ffffffffffffffffffffffffffffffffffffffff166003547fb8f9ad229f3afd622df9fb19448c4507a8e1c679d1936fc8510b354ad34e2ec884846040516109109291906129d2565b60405180910390a35050565b600460205280600052604060002060009150905080600001549080600101805461094590612723565b80601f016020809104026020016040519081016040528092919081815260200182805461097190612723565b80156109be5780601f10610993576101008083540402835291602001916109be565b820191906000526020600020905b8154815290600101906020018083116109a157829003601f168201915b5050505050908060020180546109d390612723565b80601f01602080910402602001604051908101604052809291908181526020018280546109ff90612723565b8015610a4c5780601f10610a2157610100808354040283529160200191610a4c565b820191906000526020600020905b815481529060010190602001808311610a2f57829003601f168201915b5050505050908060030160009054906101000a900473ffffffffffffffffffffffffffffffffffffffff16908060040154908060050154908060060160009054906101000a900460ff16905087565b60066020528160005260406000208181548110610ab757600080fd5b9060005260206000209060020201600091509150508060000160009054906101000a900473ffffffffffffffffffffffffffffffffffffffff16908060010154905082565b606060066000838152602001908152602001600020805480602002602001604051908101604052809291908181526020016000905b82821015610bc357838290600052602060002090600202016040518060400160405290816000820160009054906101000a900473ffffffffffffffffffffffffffffffffffffffff1673ffffffffffffffffffffffffffffffffffffffff1673ffffffffffffffffffffffffffffffffffffffff16815260200160018201548152505081526020019060010190610b31565b505050509050919050565b60606002805480602002602001604051908101604052809291908181526020016000905b82821015610db257838290600052602060002090600502016040518060a001604052908160008201548152602001600182018054610c2f90612723565b80601f0160208091040260200160405190810160405280929190818152602001828054610c5b90612723565b8015610ca85780601f10610c7d57610100808354040283529160200191610ca8565b820191906000526020600020905b815481529060010190602001808311610c8b57829003601f168201915b50505050508152602001600282018054610cc190612723565b80601f0160208091040260200160405190810160405280929190818152602001828054610ced90612723565b8015610d3a5780601f10610d0f57610100808354040283529160200191610d3a565b820191906000526020600020905b815481529060010190602001808311610d1d57829003601f168201915b505050505081526020016003820160009054906101000a900473ffffffffffffffffffffffffffffffffffffffff1673ffffffffffffffffffffffffffffffffffffffff1673ffffffffffffffffffffffffffffffffffffffff16815260200160048201548152505081526020019060010190610bf2565b50505050905090565b6060600080600190505b6003548111610e18576004600082815260200190815260200160002060060160009054906101000a900460ff16610e05578180610e01906126ac565b9250505b8080610e10906126ac565b915050610dc5565b5060008167ffffffffffffffff811115610e3557610e34611cf0565b5b604051908082528060200260200182016040528015610e6e57816020015b610e5b611ade565b815260200190600190039081610e535790505b509050600080600190505b60035481116110bb576004600082815260200190815260200160002060060160009054906101000a900460ff166110a857600460008281526020019081526020016000206040518060e001604052908160008201548152602001600182018054610ee290612723565b80601f0160208091040260200160405190810160405280929190818152602001828054610f0e90612723565b8015610f5b5780601f10610f3057610100808354040283529160200191610f5b565b820191906000526020600020905b815481529060010190602001808311610f3e57829003601f168201915b50505050508152602001600282018054610f7490612723565b80601f0160208091040260200160405190810160405280929190818152602001828054610fa090612723565b8015610fed5780601f10610fc257610100808354040283529160200191610fed565b820191906000526020600020905b815481529060010190602001808311610fd057829003601f168201915b505050505081526020016003820160009054906101000a900473ffffffffffffffffffffffffffffffffffffffff1673ffffffffffffffffffffffffffffffffffffffff1673ffffffffffffffffffffffffffffffffffffffff16815260200160048201548152602001600582015481526020016006820160009054906101000a900460ff16151515158152505083838151811061108e5761108d612a09565b5b602002602001018190525081806110a4906126ac565b9250505b80806110b3906126ac565b915050610e79565b5081935050505090565b600160003373ffffffffffffffffffffffffffffffffffffffff1673ffffffffffffffffffffffffffffffffffffffff16815260200190815260200160002060009054906101000a900460ff1680611168575060008054906101000a900473ffffffffffffffffffffffffffffffffffffffff1673ffffffffffffffffffffffffffffffffffffffff163373ffffffffffffffffffffffffffffffffffffffff16145b6111a7576040517f08c379a000000000000000000000000000000000000000000000000000000000815260040161119e9061265d565b60405180910390fd5b60006004600083815260200190815260200160002090506000816000015403611205576040517f08c379a00000000000000000000000000000000000000000000000000000000081526004016111fc906125cb565b60405180910390fd5b8060060160009054906101000a900460ff1615611257576040517f08c379a000000000000000000000000000000000000000000000000000000000815260040161124e90612aaa565b60405180910390fd5b6005600083815260200190815260200160002060003373ffffffffffffffffffffffffffffffffffffffff1673ffffffffffffffffffffffffffffffffffffffff16815260200190815260200160002060009054906101000a900460ff16156112f5576040517f08c379a00000000000000000000000000000000000000000000000000000000081526004016112ec90612b3c565b60405180910390fd5b60016005600084815260200190815260200160002060003373ffffffffffffffffffffffffffffffffffffffff1673ffffffffffffffffffffffffffffffffffffffff16815260200190815260200160002060006101000a81548160ff021916908315150217905550806005016000815480929190611373906126ac565b91905055503373ffffffffffffffffffffffffffffffffffffffff16827f09e9a1650a712e6e7e9387f308474649a8070c33f1ed1d3ecf7f16294735f05683600501546040516113c39190612466565b60405180910390a360028160050154106116b45760018160060160006101000a81548160ff021916908315150217905550600060016002805490506114089190612b5c565b905060026040518060a0016040528083815260200184600101805461142c90612723565b80601f016020809104026020016040519081016040528092919081815260200182805461145890612723565b80156114a55780601f1061147a576101008083540402835291602001916114a5565b820191906000526020600020905b81548152906001019060200180831161148857829003601f168201915b505050505081526020018460020180546114be90612723565b80601f01602080910402602001604051908101604052809291908181526020018280546114ea90612723565b80156115375780601f1061150c57610100808354040283529160200191611537565b820191906000526020600020905b81548152906001019060200180831161151a57829003601f168201915b505050505081526020018460030160009054906101000a900473ffffffffffffffffffffffffffffffffffffffff1673ffffffffffffffffffffffffffffffffffffffff1681526020014281525090806001815401808255809150506001900390600052602060002090600502016000909190919091506000820151816000015560208201518160010190816115cd9190612900565b5060408201518160020190816115e39190612900565b5060608201518160030160006101000a81548173ffffffffffffffffffffffffffffffffffffffff021916908373ffffffffffffffffffffffffffffffffffffffff1602179055506080820151816004015550508160030160009054906101000a900473ffffffffffffffffffffffffffffffffffffffff1673ffffffffffffffffffffffffffffffffffffffff16817f0a2627ef79b7388b77d07652a60137d9b359a689f2d609cf8704f9798b93949084600101856002016040516116aa929190612c14565b60405180910390a3505b5050565b6000600160008373ffffffffffffffffffffffffffffffffffffffff1673ffffffffffffffffffffffffffffffffffffffff16815260200190815260200160002060009054906101000a900460ff168061175d575060008054906101000a900473ffffffffffffffffffffffffffffffffffffffff1673ffffffffffffffffffffffffffffffffffffffff168273ffffffffffffffffffffffffffffffffffffffff16145b9050919050565b60035481565b600160003373ffffffffffffffffffffffffffffffffffffffff1673ffffffffffffffffffffffffffffffffffffffff16815260200190815260200160002060009054906101000a900460ff168061180d575060008054906101000a900473ffffffffffffffffffffffffffffffffffffffff1673ffffffffffffffffffffffffffffffffffffffff163373ffffffffffffffffffffffffffffffffffffffff16145b61184c576040517f08c379a00000000000000000000000000000000000000000000000000000000081526004016118439061265d565b60405180910390fd5b600060016002805490506118609190612b5c565b905060026040518060a001604052808381526020018581526020018481526020013373ffffffffffffffffffffffffffffffffffffffff1681526020014281525090806001815401808255809150506001900390600052602060002090600502016000909190919091506000820151816000015560208201518160010190816118e99190612900565b5060408201518160020190816118ff9190612900565b5060608201518160030160006101000a81548173ffffffffffffffffffffffffffffffffffffffff021916908373ffffffffffffffffffffffffffffffffffffffff1602179055506080820151816004015550503373ffffffffffffffffffffffffffffffffffffffff16817f0a2627ef79b7388b77d07652a60137d9b359a689f2d609cf8704f9798b939490858560405161199c9291906129d2565b60405180910390a3505050565b60008054906101000a900473ffffffffffffffffffffffffffffffffffffffff1673ffffffffffffffffffffffffffffffffffffffff163373ffffffffffffffffffffffffffffffffffffffff1614611a37576040517f08c379a0000000000000000000000000000000000000000000000000000000008152600401611a2e906124cd565b60405180910390fd5b6000600160008373ffffffffffffffffffffffffffffffffffffffff1673ffffffffffffffffffffffffffffffffffffffff16815260200190815260200160002060006101000a81548160ff0219169083151502179055508073ffffffffffffffffffffffffffffffffffffffff167f1e5d48c75f77ab7fd581247d777530d4e8c18432289e14017ba995532f6ca1cf604051611ad390612539565b60405180910390a250565b6040518060e00160405280600081526020016060815260200160608152602001600073ffffffffffffffffffffffffffffffffffffffff16815260200160008152602001600081526020016000151581525090565b6000604051905090565b600080fd5b600080fd5b6000819050919050565b611b5a81611b47565b8114611b6557600080fd5b50565b600081359050611b7781611b51565b92915050565b600073ffffffffffffffffffffffffffffffffffffffff82169050919050565b6000611ba882611b7d565b9050919050565b611bb881611b9d565b8114611bc357600080fd5b50565b600081359050611bd581611baf565b92915050565b60008060408385031215611bf257611bf1611b3d565b5b6000611c0085828601611b68565b9250506020611c1185828601611bc6565b9150509250929050565b60008115159050919050565b611c3081611c1b565b82525050565b6000602082019050611c4b6000830184611c27565b92915050565b611c5a81611b9d565b82525050565b6000602082019050611c756000830184611c51565b92915050565b600060208284031215611c9157611c90611b3d565b5b6000611c9f84828501611bc6565b91505092915050565b600060208284031215611cbe57611cbd611b3d565b5b6000611ccc84828501611b68565b91505092915050565b600080fd5b600080fd5b6000601f19601f8301169050919050565b7f4e487b7100000000000000000000000000000000000000000000000000000000600052604160045260246000fd5b611d2882611cdf565b810181811067ffffffffffffffff82111715611d4757611d46611cf0565b5b80604052505050565b6000611d5a611b33565b9050611d668282611d1f565b919050565b600067ffffffffffffffff821115611d8657611d85611cf0565b5b611d8f82611cdf565b9050602081019050919050565b82818337600083830152505050565b6000611dbe611db984611d6b565b611d50565b905082815260208101848484011115611dda57611dd9611cda565b5b611de5848285611d9c565b509392505050565b600082601f830112611e0257611e01611cd5565b5b8135611e12848260208601611dab565b91505092915050565b60008060408385031215611e3257611e31611b3d565b5b600083013567ffffffffffffffff811115611e5057611e4f611b42565b5b611e5c85828601611ded565b925050602083013567ffffffffffffffff811115611e7d57611e7c611b42565b5b611e8985828601611ded565b9150509250929050565b611e9c81611b47565b82525050565b600081519050919050565b600082825260208201905092915050565b60005b83811015611edc578082015181840152602081019050611ec1565b60008484015250505050565b6000611ef382611ea2565b611efd8185611ead565b9350611f0d818560208601611ebe565b611f1681611cdf565b840191505092915050565b600060e082019050611f36600083018a611e93565b8181036020830152611f488189611ee8565b90508181036040830152611f5c8188611ee8565b9050611f6b6060830187611c51565b611f786080830186611e93565b611f8560a0830185611e93565b611f9260c0830184611c27565b98975050505050505050565b60008060408385031215611fb557611fb4611b3d565b5b6000611fc385828601611b68565b9250506020611fd485828601611b68565b9150509250929050565b6000604082019050611ff36000830185611c51565b6120006020830184611e93565b9392505050565b600081519050919050565b600082825260208201905092915050565b6000819050602082019050919050565b61203c81611b9d565b82525050565b61204b81611b47565b82525050565b6040820160008201516120676000850182612033565b50602082015161207a6020850182612042565b50505050565b600061208c8383612051565b60408301905092915050565b6000602082019050919050565b60006120b082612007565b6120ba8185612012565b93506120c583612023565b8060005b838110156120f65781516120dd8882612080565b97506120e883612098565b9250506001810190506120c9565b5085935050505092915050565b6000602082019050818103600083015261211d81846120a5565b905092915050565b600081519050919050565b600082825260208201905092915050565b6000819050602082019050919050565b600082825260208201905092915050565b600061216d82611ea2565b6121778185612151565b9350612187818560208601611ebe565b61219081611cdf565b840191505092915050565b600060a0830160008301516121b36000860182612042565b50602083015184820360208601526121cb8282612162565b915050604083015184820360408601526121e58282612162565b91505060608301516121fa6060860182612033565b50608083015161220d6080860182612042565b508091505092915050565b6000612224838361219b565b905092915050565b6000602082019050919050565b600061224482612125565b61224e8185612130565b93508360208202850161226085612141565b8060005b8581101561229c578484038952815161227d8582612218565b94506122888361222c565b925060208a01995050600181019050612264565b50829750879550505050505092915050565b600060208201905081810360008301526122c88184612239565b905092915050565b600081519050919050565b600082825260208201905092915050565b6000819050602082019050919050565b61230581611c1b565b82525050565b600060e0830160008301516123236000860182612042565b506020830151848203602086015261233b8282612162565b915050604083015184820360408601526123558282612162565b915050606083015161236a6060860182612033565b50608083015161237d6080860182612042565b5060a083015161239060a0860182612042565b5060c08301516123a360c08601826122fc565b508091505092915050565b60006123ba838361230b565b905092915050565b6000602082019050919050565b60006123da826122d0565b6123e481856122db565b9350836020820285016123f6856122ec565b8060005b85811015612432578484038952815161241385826123ae565b945061241e836123c2565b925060208a019950506001810190506123fa565b50829750879550505050505092915050565b6000602082019050818103600083015261245e81846123cf565b905092915050565b600060208201905061247b6000830184611e93565b92915050565b7f536563757269747920416c6572743a2041646d696e73206f6e6c792e00000000600082015250565b60006124b7601c83611ead565b91506124c282612481565b602082019050919050565b600060208201905081810360008301526124e6816124aa565b9050919050565b7f496e76657374696761746f720000000000000000000000000000000000000000600082015250565b6000612523600c83611ead565b915061252e826124ed565b602082019050919050565b6000602082019050818103600083015261255281612516565b9050919050565b7f536563757269747920416c6572743a205265636f726420646f6573206e6f742060008201527f65786973742e0000000000000000000000000000000000000000000000000000602082015250565b60006125b5602683611ead565b91506125c082612559565b604082019050919050565b600060208201905081810360008301526125e4816125a8565b9050919050565b7f536563757269747920416c6572743a20556e617574686f72697a65642077616c60008201527f6c65742e20496e76657374696761746f7273206f6e6c792e0000000000000000602082015250565b6000612647603883611ead565b9150612652826125eb565b604082019050919050565b600060208201905081810360008301526126768161263a565b9050919050565b7f4e487b7100000000000000000000000000000000000000000000000000000000600052601160045260246000fd5b60006126b782611b47565b91507fffffffffffffffffffffffffffffffffffffffffffffffffffffffffffffffff82036126e9576126e861267d565b5b600182019050919050565b7f4e487b7100000000000000000000000000000000000000000000000000000000600052602260045260246000fd5b6000600282049050600182168061273b57607f821691505b60208210810361274e5761274d6126f4565b5b50919050565b60008190508160005260206000209050919050565b60006020601f8301049050919050565b600082821b905092915050565b6000600883026127b67fffffffffffffffffffffffffffffffffffffffffffffffffffffffffffffffff82612779565b6127c08683612779565b95508019841693508086168417925050509392505050565b6000819050919050565b60006127fd6127f86127f384611b47565b6127d8565b611b47565b9050919050565b6000819050919050565b612817836127e2565b61282b61282382612804565b848454612786565b825550505050565b600090565b612840612833565b61284b81848461280e565b505050565b5b8181101561286f57612864600082612838565b600181019050612851565b5050565b601f8211156128b45761288581612754565b61288e84612769565b8101602085101561289d578190505b6128b16128a985612769565b830182612850565b50505b505050565b600082821c905092915050565b60006128d7600019846008026128b9565b1980831691505092915050565b60006128f083836128c6565b9150826002028217905092915050565b61290982611ea2565b67ffffffffffffffff81111561292257612921611cf0565b5b61292c8254612723565b612937828285612873565b600060209050601f83116001811461296a5760008415612958578287015190505b61296285826128e4565b8655506129ca565b601f19841661297886612754565b60005b828110156129a05784890151825560018201915060208501945060208101905061297b565b868310156129bd57848901516129b9601f8916826128c6565b8355505b6001600288020188555050505b505050505050565b600060408201905081810360008301526129ec8185611ee8565b90508181036020830152612a008184611ee8565b90509392505050565b7f4e487b7100000000000000000000000000000000000000000000000000000000600052603260045260246000fd5b7f536563757269747920416c6572743a205265636f726420616c7265616479206660008201527f696e616c697a65642e0000000000000000000000000000000000000000000000602082015250565b6000612a94602983611ead565b9150612a9f82612a38565b604082019050919050565b60006020820190508181036000830152612ac381612a87565b9050919050565b7f536563757269747920416c6572743a20596f75206861766520616c726561647960008201527f20617070726f7665642074686973207265636f72642e00000000000000000000602082015250565b6000612b26603683611ead565b9150612b3182612aca565b604082019050919050565b60006020820190508181036000830152612b5581612b19565b9050919050565b6000612b6782611b47565b9150612b7283611b47565b9250828201905080821115612b8a57612b8961267d565b5b92915050565b60008154612b9d81612723565b612ba78186611ead565b94506001821660008114612bc25760018114612bd857612c0b565b60ff198316865281151560200286019350612c0b565b612be185612754565b60005b83811015612c0357815481890152600182019150602081019050612be4565b808801955050505b50505092915050565b60006040820190508181036000830152612c2e8185612b90565b90508181036020830152612c428184612b90565b9050939250505056fea2646970667358221220fb2cdbf034ac887abbce336aab3e64484a9e948a71a931350610f51ca8a3837164736f6c634300081c0033",
  "linkReferences": {},
  "deployedLinkReferences": {}
}